{"abi":[{"type":"function","name":"arr","inputs":[{"name":"","type":"uint256","internalType":"uint256"}],"outputs":[{"name":"","type":"uint256","internalType":"uint256"}],"stateMutability":"view"},{"type":"function","name":"freeMany","inputs":[{"name":"count","type":"uint256","internalType":"uint256"}],"outputs":[],"stateMutability":"nonpayable"},{"type":"function","name":"increment","inputs":[],"outputs":[],"stateMutability":"nonpayable"},{"type":"function","name":"incrementMany","inputs":[{"name":"times","type":"uint256","internalType":"uint256"}],"outputs":[],"stateMutability":"nonpayable"},{"type":"function","name":"number","inputs":[],"outputs":[{"name":"","type":"uint256","internalType":"uint256"}],"stateMutability":"view"},{"type":"function","name":"pushMany","inputs":[{"name":"count","type":"uint256","internalType":"uint256"}],"outputs":[],"stateMutability":"nonpayable"},{"type":"function","name":"setNumber","inputs":[{"name":"newNumber","type":"uint256","internalType":"uint256"}],"outputs":[],"stateMutability":"nonpayable"}],"bytecode":{"object":"0x6080604052348015600e575f5ffd5b506102528061001c5f395ff3fe608060405234801561000f575f5ffd5b506004361061007a575f3560e01c80638381f58a116100585780638381f58a146100ca578063b95e8f42146100d2578063b9ed8de4146100e5578063d09de08a146100f8575f5ffd5b80633fb5c1cb1461007e5780636cb6ac971461009257806371e5ee5f146100a5575b5f5ffd5b61009061008c3660046101cd565b5f55565b005b6100906100a03660046101cd565b610100565b6100b86100b33660046101cd565b61013d565b60405190815260200160405180910390f35b6100b85f5481565b6100906100e03660046101cd565b61015c565b6100906100f33660046101cd565b61019e565b6100906101b8565b5f5b8181101561013957600180548061011b5761011b6101e4565b5f8281526020812082015f1990810191909155019055600101610102565b5050565b6001818154811061014c575f80fd5b5f91825260209091200154905081565b5f5b81811015610139576001805480820182555f8290527fb10e2d527612073b26eecdfd717e6a320cf44b4afac2b0732d9fcbe2b7fa0cf6018290550161015e565b5f5b81811015610139576101b06101b8565b6001016101a0565b5f805490806101c6836101f8565b9190505550565b5f602082840312156101dd575f5ffd5b5035919050565b634e487b7160e01b5f52603160045260245ffd5b5f6001820161021557634e487b7160e01b5f52601160045260245ffd5b506001019056fea2646970667358221220a036a7b7f71651a8fe0dbc8060418c58ff14b15398d7678d124153b33262766f64736f6c634300081c0033","linkReferences":{}},"methodIdentifiers":{"arr(uint256)":"71e5ee5f","freeMany(uint256)":"6cb6ac97","increment()":"d09de08a","incrementMany(uint256)":"b9ed8de4","number()":"8381f58a","pushMany(uint256)":"b95e8f42","setNumber(uint256)":"3fb5c1cb"},"id":20}